{
  "contractName": "ProductRegistry",
  "abi": [
    {
      "inputs": [],
      "stateMutability": "nonpayable",
      "type": "constructor"
    },
    {
      "anonymous": false,
      "inputs": [
        {
          "indexed": true,
          "internalType": "string",
          "name": "productHash",
          "type": "string"
        },
        {
          "indexed": false,
          "internalType": "string",
          "name": "name",
          "type": "string"
        },
        {
          "indexed": false,
          "internalType": "string",
          "name": "manufacturer",
          "type": "string"
        },
        {
          "indexed": true,
          "internalType": "address",
          "name": "registeredBy",
          "type": "address"
        },
        {
          "indexed": false,
          "internalType": "uint256",
          "name": "timestamp",
          "type": "uint256"
        }
      ],
      "name": "ProductRegistered",
      "type": "event"
    },
    {
      "anonymous": false,
      "inputs": [
        {
          "indexed": true,
          "internalType": "string",
          "name": "productHash",
          "type": "string"
        },
        {
          "indexed": true,
          "internalType": "address",
          "name": "scannedBy",
          "type": "address"
        },
        {
          "indexed": false,
          "internalType": "uint256",
          "name": "scanCount",
          "type": "uint256"
        },
        {
          "indexed": false,
          "internalType": "uint256",
          "name": "timestamp",
          "type": "uint256"
        }
      ],
      "name": "ProductScanned",
      "type": "event"
    },
    {
      "inputs": [],
      "name": "owner",
      "outputs": [
        {
          "internalType": "address",
          "name": "",
          "type": "address"
        }
      ],
      "stateMutability": "view",
      "type": "function"
    },
    {
      "inputs": [
        {
          "internalType": "string",
          "name": "",
          "type": "string"
        }
      ],
      "name": "productExists",
      "outputs": [
        {
          "internalType": "bool",
          "name": "",
          "type": "bool"
        }
      ],
      "stateMutability": "view",
      "type": "function"
    },
    {
      "inputs": [
        {
          "internalType": "uint256",
          "name": "",
          "type": "uint256"
        }
      ],
      "name": "productHashes",
      "outputs": [
        {
          "internalType": "string",
          "name": "",
          "type": "string"
        }
      ],
      "stateMutability": "view",
      "type": "function"
    },
    {
      "inputs": [
        {
          "internalType": "string",
          "name": "",
          "type": "string"
        }
      ],
      "name": "products",
      "outputs": [
        {
          "internalType": "string",
          "name": "id",
          "type": "string"
        },
        {
          "internalType": "string",
          "name": "name",
          "type": "string"
        },
        {
          "internalType": "string",
          "name": "manufacturer",
          "type": "string"
        },
        {
          "internalType": "string",
          "name": "description",
          "type": "string"
        },
        {
          "internalType": "uint256",
          "name": "price",
          "type": "uint256"
        },
        {
          "internalType": "string",
          "name": "category",
          "type": "string"
        },
        {
          "internalType": "address",
          "name": "registeredBy",
          "type": "address"
        },
        {
          "internalType": "uint256",
          "name": "createdAt",
          "type": "uint256"
        },
        {
          "internalType": "uint256",
          "name": "scanCount",
          "type": "uint256"
        },
        {
          "internalType": "uint256",
          "name": "lastScanned",
          "type": "uint256"
        },
        {
          "internalType": "bool",
          "name": "isActive",
          "type": "bool"
        }
      ],
      "stateMutability": "view",
      "type": "function"
    },
    {
      "inputs": [],
      "name": "totalProducts",
      "outputs": [
        {
          "internalType": "uint256",
          "name": "",
          "type": "uint256"
        }
      ],
      "stateMutability": "view",
      "type": "function"
    },
    {
      "inputs": [],
      "name": "totalScans",
      "outputs": [
        {
          "internalType": "uint256",
          "name": "",
          "type": "uint256"
        }
      ],
      "stateMutability": "view",
      "type": "function"
    },
    {
      "inputs": [
        {
          "internalType": "string",
          "name": "productHash",
          "type": "string"
        },
        {
          "internalType": "string",
          "name": "id",
          "type": "string"
        },
        {
          "internalType": "string",
          "name": "name",
          "type": "string"
        },
        {
          "internalType": "string",
          "name": "manufacturer",
          "type": "string"
        },
        {
          "internalType": "string",
          "name": "description",
          "type": "string"
        },
        {
          "internalType": "uint256",
          "name": "price",
          "type": "uint256"
        },
        {
          "internalType": "string",
          "name": "category",
          "type": "string"
        }
      ],
      "name": "registerProduct",
      "outputs": [],
      "stateMutability": "nonpayable",
      "type": "function"
    },
    {
      "inputs": [
        {
          "internalType": "string",
          "name": "productHash",
          "type": "string"
        }
      ],
      "name": "scanProduct",
      "outputs": [
        {
          "internalType": "uint256",
          "name": "",
          "type": "uint256"
        }
      ],
      "stateMutability": "nonpayable",
      "type": "function"
    },
    {
      "inputs": [
        {
          "internalType": "string",
          "name": "productHash",
          "type": "string"
        }
      ],
      "name": "getProduct",
      "outputs": [
        {
          "components": [
            {
              "internalType": "string",
              "name": "id",
              "type": "string"
            },
            {
              "internalType": "string",
              "name": "name",
              "type": "string"
            },
            {
              "internalType": "string",
              "name": "manufacturer",
              "type": "string"
            },
            {
              "internalType": "string",
              "name": "description",
              "type": "string"
            },
            {
              "internalType": "uint256",
              "name": "price",
              "type": "uint256"
            },
            {
              "internalType": "string",
              "name": "category",
              "type": "string"
            },
            {
              "internalType": "address",
              "name": "registeredBy",
              "type": "address"
            },
            {
              "internalType": "uint256",
              "name": "createdAt",
              "type": "uint256"
            },
            {
              "internalType": "uint256",
              "name": "scanCount",
              "type": "uint256"
            },
            {
              "internalType": "uint256",
              "name": "lastScanned",
              "type": "uint256"
            },
            {
              "internalType": "bool",
              "name": "isActive",
              "type": "bool"
            }
          ],
          "internalType": "struct ProductRegistry.Product",
          "name": "",
          "type": "tuple"
        }
      ],
      "stateMutability": "view",
      "type": "function"
    },
    {
      "inputs": [],
      "name": "getAllProductHashes",
      "outputs": [
        {
          "internalType": "string[]",
          "name": "",
          "type": "string[]"
        }
      ],
      "stateMutability": "view",
      "type": "function"
    },
    {
      "inputs": [
        {
          "internalType": "address",
          "name": "manufacturer",
          "type": "address"
        }
      ],
      "name": "getProductsByManufacturer",
      "outputs": [
        {
          "internalType": "string[]",
          "name": "",
          "type": "string[]"
        }
      ],
      "stateMutability": "view",
      "type": "function"
    },
    {
      "inputs": [
        {
          "internalType": "string",
          "name": "productHash",
          "type": "string"
        }
      ],
      "name": "deactivateProduct",
      "outputs": [],
      "stateMutability": "nonpayable",
      "type": "function"
    },
    {
      "inputs": [],
      "name": "getTotalStats",
      "outputs": [
        {
          "internalType": "uint256",
          "name": "",
          "type": "uint256"
        },
        {
          "internalType": "uint256",
          "name": "",
          "type": "uint256"
        }
      ],
      "stateMutability": "view",
      "type": "function"
    }
  ],
  "bytecode": "0x608060405234801561001057600080fd5b5033600360006101000a81548173ffffffffffffffffffffffffffffffffffffffff021916908373ffffffffffffffffffffffffffffffffffffffff1602179055506000600481905550600060058190555061265f806100716000396000f3fe608060405234801561001057600080fd5b50600436106100cf5760003560e01c80638addc0511161008c5780639cefe28c116100665780639cefe28c14610232578063f58e2eab1461024e578063f7e7ce4d1461027e578063fc5cbf1d146102ae576100cf565b80638addc051146101c65780638da5cb5b146101f65780639b9d326d14610214576100cf565b80630186a423146100d45780630c23792b1461010e5780632f9f79891461012c578063448668d81461014857806368111cce14610166578063849df74a14610196575b600080fd5b6100ee60048036038101906100e9919061179a565b6102cd565b6040516101059b9a999897969594939291906118d7565b60405180910390f35b610116610612565b60405161012391906119a5565b60405180910390f35b6101466004803603810190610141919061179a565b610618565b005b6101506107c8565b60405161015d9190611acc565b60405180910390f35b610180600480360381019061017b919061179a565b6108a1565b60405161018d9190611c26565b60405180910390f35b6101b060048036038101906101ab9190611c74565b610cba565b6040516101bd9190611acc565b60405180910390f35b6101e060048036038101906101db919061179a565b610f68565b6040516101ed9190611ca1565b60405180910390f35b6101fe610f9e565b60405161020b9190611cbc565b60405180910390f35b61021c610fc4565b60405161022991906119a5565b60405180910390f35b61024c60048036038101906102479190611d03565b610fca565b005b61026860048036038101906102639190611e4d565b61137d565b6040516102759190611e7a565b60405180910390f35b6102986004803603810190610293919061179a565b611429565b6040516102a591906119a5565b60405180910390f35b6102b66115bd565b6040516102c4929190611e9c565b60405180910390f35b60008180516020810182018051848252602083016020850120818352809550505050505060009150905080600001805461030690611ef4565b80601f016020809104026020016040519081016040528092919081815260200182805461033290611ef4565b801561037f5780601f106103545761010080835404028352916020019161037f565b820191906000526020600020905b81548152906001019060200180831161036257829003601f168201915b50505050509080600101805461039490611ef4565b80601f01602080910402602001604051908101604052809291908181526020018280546103c090611ef4565b801561040d5780601f106103e25761010080835404028352916020019161040d565b820191906000526020600020905b8154815290600101906020018083116103f057829003601f168201915b50505050509080600201805461042290611ef4565b80601f016020809104026020016040519081016040528092919081815260200182805461044e90611ef4565b801561049b5780601f106104705761010080835404028352916020019161049b565b820191906000526020600020905b81548152906001019060200180831161047e57829003601f168201915b5050505050908060030180546104b090611ef4565b80601f01602080910402602001604051908101604052809291908181526020018280546104dc90611ef4565b80156105295780601f106104fe57610100808354040283529160200191610529565b820191906000526020600020905b81548152906001019060200180831161050c57829003601f168201915b50505050509080600401549080600501805461054490611ef4565b80601f016020809104026020016040519081016040528092919081815260200182805461057090611ef4565b80156105bd5780601f10610592576101008083540402835291602001916105bd565b820191906000526020600020905b8154815290600101906020018083116105a057829003601f168201915b5050505050908060060160009054906101000a900473ffffffffffffffffffffffffffffffffffffffff169080600701549080600801549080600901549080600a0160009054906101000a900460ff1690508b565b60055481565b806001816040516106299190611f61565b908152602001604051809103902060009054906101000a900460ff16610684576040517f08c379a000000000000000000000000000000000000000000000000000000000815260040161067b90611fc4565b60405180910390fd5b3373ffffffffffffffffffffffffffffffffffffffff166000836040516106ab9190611f61565b908152602001604051809103902060060160009054906101000a900473ffffffffffffffffffffffffffffffffffffffff1673ffffffffffffffffffffffffffffffffffffffff16148061074c5750600360009054906101000a900473ffffffffffffffffffffffffffffffffffffffff1673ffffffffffffffffffffffffffffffffffffffff163373ffffffffffffffffffffffffffffffffffffffff16145b61078b576040517f08c379a000000000000000000000000000000000000000000000000000000000815260040161078290612056565b60405180910390fd5b6000808360405161079c9190611f61565b9081526020016040518091039020600a0160006101000a81548160ff0219169083151502179055505050565b60606002805480602002602001604051908101604052809291908181526020016000905b8282101561089857838290600052602060002001805461080b90611ef4565b80601f016020809104026020016040519081016040528092919081815260200182805461083790611ef4565b80156108845780601f1061085957610100808354040283529160200191610884565b820191906000526020600020905b81548152906001019060200180831161086757829003601f168201915b5050505050815260200190600101906107ec565b50505050905090565b6108a96115ce565b816001816040516108ba9190611f61565b908152602001604051809103902060009054906101000a900460ff16610915576040517f08c379a000000000000000000000000000000000000000000000000000000000815260040161090c90611fc4565b60405180910390fd5b6000836040516109259190611f61565b90815260200160405180910390206040518061016001604052908160008201805461094f90611ef4565b80601f016020809104026020016040519081016040528092919081815260200182805461097b90611ef4565b80156109c85780601f1061099d576101008083540402835291602001916109c8565b820191906000526020600020905b8154815290600101906020018083116109ab57829003601f168201915b505050505081526020016001820180546109e190611ef4565b80601f0160208091040260200160405190810160405280929190818152602001828054610a0d90611ef4565b8015610a5a5780601f10610a2f57610100808354040283529160200191610a5a565b820191906000526020600020905b815481529060010190602001808311610a3d57829003601f168201915b50505050508152602001600282018054610a7390611ef4565b80601f0160208091040260200160405190810160405280929190818152602001828054610a9f90611ef4565b8015610aec5780601f10610ac157610100808354040283529160200191610aec565b820191906000526020600020905b815481529060010190602001808311610acf57829003601f168201915b50505050508152602001600382018054610b0590611ef4565b80601f0160208091040260200160405190810160405280929190818152602001828054610b3190611ef4565b8015610b7e5780601f10610b5357610100808354040283529160200191610b7e565b820191906000526020600020905b815481529060010190602001808311610b6157829003601f168201915b5050505050815260200160048201548152602001600582018054610ba190611ef4565b80601f0160208091040260200160405190810160405280929190818152602001828054610bcd90611ef4565b8015610c1a5780601f10610bef57610100808354040283529160200191610c1a565b820191906000526020600020905b815481529060010190602001808311610bfd57829003601f168201915b505050505081526020016006820160009054906101000a900473ffffffffffffffffffffffffffffffffffffffff1673ffffffffffffffffffffffffffffffffffffffff1673ffffffffffffffffffffffffffffffffffffffff168152602001600782015481526020016008820154815260200160098201548152602001600a820160009054906101000a900460ff161515151581525050915050919050565b60606000805b600280549050811015610d80578373ffffffffffffffffffffffffffffffffffffffff16600060028381548110610cfa57610cf9612076565b5b90600052602060002001604051610d11919061213d565b908152602001604051809103902060060160009054906101000a900473ffffffffffffffffffffffffffffffffffffffff1673ffffffffffffffffffffffffffffffffffffffff1603610d6d578180610d6990612183565b9250505b8080610d7890612183565b915050610cc0565b5060008167ffffffffffffffff811115610d9d57610d9c61166f565b5b604051908082528060200260200182016040528015610dd057816020015b6060815260200190600190039081610dbb5790505b5090506000805b600280549050811015610f5c578573ffffffffffffffffffffffffffffffffffffffff16600060028381548110610e1157610e10612076565b5b90600052602060002001604051610e28919061213d565b908152602001604051809103902060060160009054906101000a900473ffffffffffffffffffffffffffffffffffffffff1673ffffffffffffffffffffffffffffffffffffffff1603610f495760028181548110610e8957610e88612076565b5b906000526020600020018054610e9e90611ef4565b80601f0160208091040260200160405190810160405280929190818152602001828054610eca90611ef4565b8015610f175780601f10610eec57610100808354040283529160200191610f17565b820191906000526020600020905b815481529060010190602001808311610efa57829003601f168201915b5050505050838381518110610f2f57610f2e612076565b5b60200260200101819052508180610f4590612183565b9250505b8080610f5490612183565b915050610dd7565b50819350505050919050565b6001818051602081018201805184825260208301602085012081835280955050505050506000915054906101000a900460ff1681565b600360009054906101000a900473ffffffffffffffffffffffffffffffffffffffff1681565b60045481565b600187604051610fda9190611f61565b908152602001604051809103902060009054906101000a900460ff1615611036576040517f08c379a000000000000000000000000000000000000000000000000000000000815260040161102d90612217565b60405180910390fd5b600085511161107a576040517f08c379a000000000000000000000000000000000000000000000000000000000815260040161107190612283565b60405180910390fd5b60008451116110be576040517f08c379a00000000000000000000000000000000000000000000000000000000081526004016110b5906122ef565b60405180910390fd5b60008211611101576040517f08c379a00000000000000000000000000000000000000000000000000000000081526004016110f89061235b565b60405180910390fd5b6040518061016001604052808781526020018681526020018581526020018481526020018381526020018281526020013373ffffffffffffffffffffffffffffffffffffffff1681526020014281526020016000815260200160008152602001600115158152506000886040516111789190611f61565b9081526020016040518091039020600082015181600001908161119b9190612512565b5060208201518160010190816111b19190612512565b5060408201518160020190816111c79190612512565b5060608201518160030190816111dd9190612512565b506080820151816004015560a08201518160050190816111fd9190612512565b5060c08201518160060160006101000a81548173ffffffffffffffffffffffffffffffffffffffff021916908373ffffffffffffffffffffffffffffffffffffffff16021790555060e082015181600701556101008201518160080155610120820151816009015561014082015181600a0160006101000a81548160ff0219169083151502179055509050506001808860405161129a9190611f61565b908152602001604051809103902060006101000a81548160ff0219169083151502179055506002879080600181540180825580915050600190039060005260206000200160009091909190915090816112f39190612512565b506004600081548092919061130790612183565b91905055503373ffffffffffffffffffffffffffffffffffffffff16876040516113319190611f61565b60405180910390207f94f13dbe024332dcc9eea3655dffd40eaeb320b6c8479d9bc98d2c34f1e5e1c587874260405161136c939291906125e4565b60405180910390a350505050505050565b6002818154811061138d57600080fd5b9060005260206000200160009150905080546113a890611ef4565b80601f01602080910402602001604051908101604052809291908181526020018280546113d490611ef4565b80156114215780601f106113f657610100808354040283529160200191611421565b820191906000526020600020905b81548152906001019060200180831161140457829003601f168201915b505050505081565b60008160018160405161143c9190611f61565b908152602001604051809103902060009054906101000a900460ff16611497576040517f08c379a000000000000000000000000000000000000000000000000000000000815260040161148e90611fc4565b60405180910390fd5b6000836040516114a79190611f61565b908152602001604051809103902060080160008154809291906114c990612183565b9190505550426000846040516114df9190611f61565b9081526020016040518091039020600901819055506005600081548092919061150790612183565b91905055503373ffffffffffffffffffffffffffffffffffffffff16836040516115319190611f61565b60405180910390207f8d36d1a283e2cf07375684830c904b817684dbac34e113a0b952942642427e9e60008660405161156a9190611f61565b9081526020016040518091039020600801544260405161158b929190611e9c565b60405180910390a36000836040516115a39190611f61565b908152602001604051809103902060080154915050919050565b600080600454600554915091509091565b604051806101600160405280606081526020016060815260200160608152602001606081526020016000815260200160608152602001600073ffffffffffffffffffffffffffffffffffffffff1681526020016000815260200160008152602001600081526020016000151581525090565b6000604051905090565b600080fd5b600080fd5b600080fd5b600080fd5b6000601f19601f8301169050919050565b7f4e487b7100000000000000000000000000000000000000000000000000000000600052604160045260246000fd5b6116a78261165e565b810181811067ffffffffffffffff821117156116c6576116c561166f565b5b80604052505050565b60006116d9611640565b90506116e5828261169e565b919050565b600067ffffffffffffffff8211156117055761170461166f565b5b61170e8261165e565b9050602081019050919050565b82818337600083830152505050565b600061173d611738846116ea565b6116cf565b90508281526020810184848401111561175957611758611659565b5b61176484828561171b565b509392505050565b600082601f83011261178157611780611654565b5b813561179184826020860161172a565b91505092915050565b6000602082840312156117b0576117af61164a565b5b600082013567ffffffffffffffff8111156117ce576117cd61164f565b5b6117da8482850161176c565b91505092915050565b600081519050919050565b600082825260208201905092915050565b60005b8381101561181d578082015181840152602081019050611802565b60008484015250505050565b6000611834826117e3565b61183e81856117ee565b935061184e8185602086016117ff565b6118578161165e565b840191505092915050565b6000819050919050565b61187581611862565b82525050565b600073ffffffffffffffffffffffffffffffffffffffff82169050919050565b60006118a68261187b565b9050919050565b6118b68161189b565b82525050565b60008115159050919050565b6118d1816118bc565b82525050565b60006101608201905081810360008301526118f2818e611829565b90508181036020830152611906818d611829565b9050818103604083015261191a818c611829565b9050818103606083015261192e818b611829565b905061193d608083018a61186c565b81810360a083015261194f8189611829565b905061195e60c08301886118ad565b61196b60e083018761186c565b61197961010083018661186c565b61198761012083018561186c565b6119956101408301846118c8565b9c9b505050505050505050505050565b60006020820190506119ba600083018461186c565b92915050565b600081519050919050565b600082825260208201905092915050565b6000819050602082019050919050565b600082825260208201905092915050565b6000611a08826117e3565b611a1281856119ec565b9350611a228185602086016117ff565b611a2b8161165e565b840191505092915050565b6000611a4283836119fd565b905092915050565b6000602082019050919050565b6000611a62826119c0565b611a6c81856119cb565b935083602082028501611a7e856119dc565b8060005b85811015611aba5784840389528151611a9b8582611a36565b9450611aa683611a4a565b925060208a01995050600181019050611a82565b50829750879550505050505092915050565b60006020820190508181036000830152611ae68184611a57565b905092915050565b611af781611862565b82525050565b611b068161189b565b82525050565b611b15816118bc565b82525050565b6000610160830160008301518482036000860152611b3982826119fd565b91505060208301518482036020860152611b5382826119fd565b91505060408301518482036040860152611b6d82826119fd565b91505060608301518482036060860152611b8782826119fd565b9150506080830151611b9c6080860182611aee565b5060a083015184820360a0860152611bb482826119fd565b91505060c0830151611bc960c0860182611afd565b5060e0830151611bdc60e0860182611aee565b50610100830151611bf1610100860182611aee565b50610120830151611c06610120860182611aee565b50610140830151611c1b610140860182611b0c565b508091505092915050565b60006020820190508181036000830152611c408184611b1b565b905092915050565b611c518161189b565b8114611c5c57600080fd5b50565b600081359050611c6e81611c48565b92915050565b600060208284031215611c8a57611c8961164a565b5b6000611c9884828501611c5f565b91505092915050565b6000602082019050611cb660008301846118c8565b92915050565b6000602082019050611cd160008301846118ad565b92915050565b611ce081611862565b8114611ceb57600080fd5b50565b600081359050611cfd81611cd7565b92915050565b600080600080600080600060e0888a031215611d2257611d2161164a565b5b600088013567ffffffffffffffff811115611d4057611d3f61164f565b5b611d4c8a828b0161176c565b975050602088013567ffffffffffffffff811115611d6d57611d6c61164f565b5b611d798a828b0161176c565b965050604088013567ffffffffffffffff811115611d9a57611d9961164f565b5b611da68a828b0161176c565b955050606088013567ffffffffffffffff811115611dc757611dc661164f565b5b611dd38a828b0161176c565b945050608088013567ffffffffffffffff811115611df457611df361164f565b5b611e008a828b0161176c565b93505060a0611e118a828b01611cee565b92505060c088013567ffffffffffffffff811115611e3257611e3161164f565b5b611e3e8a828b0161176c565b91505092959891949750929550565b600060208284031215611e6357611e6261164a565b5b6000611e7184828501611cee565b91505092915050565b60006020820190508181036000830152611e948184611829565b905092915050565b6000604082019050611eb1600083018561186c565b611ebe602083018461186c565b9392505050565b7f4e487b7100000000000000000000000000000000000000000000000000000000600052602260045260246000fd5b60006002820490506001821680611f0c57607f821691505b602082108103611f1f57611f1e611ec5565b5b50919050565b600081905092915050565b6000611f3b826117e3565b611f458185611f25565b9350611f558185602086016117ff565b80840191505092915050565b6000611f6d8284611f30565b915081905092915050565b7f50726f6475637420646f6573206e6f7420657869737400000000000000000000600082015250565b6000611fae6016836117ee565b9150611fb982611f78565b602082019050919050565b60006020820190508181036000830152611fdd81611fa1565b9050919050565b7f4f6e6c792070726f64756374206f776e6572206f7220636f6e7472616374206f60008201527f776e65722063616e206465616374697661746500000000000000000000000000602082015250565b60006120406033836117ee565b915061204b82611fe4565b604082019050919050565b6000602082019050818103600083015261206f81612033565b9050919050565b7f4e487b7100000000000000000000000000000000000000000000000000000000600052603260045260246000fd5b60008190508160005260206000209050919050565b600081546120c781611ef4565b6120d18186611f25565b945060018216600081146120ec576001811461210157612134565b60ff1983168652811515820286019350612134565b61210a856120a5565b60005b8381101561212c5781548189015260018201915060208101905061210d565b838801955050505b50505092915050565b600061214982846120ba565b915081905092915050565b7f4e487b7100000000000000000000000000000000000000000000000000000000600052601160045260246000fd5b600061218e82611862565b91507fffffffffffffffffffffffffffffffffffffffffffffffffffffffffffffffff82036121c0576121bf612154565b5b600182019050919050565b7f50726f6475637420616c72656164792065786973747300000000000000000000600082015250565b60006122016016836117ee565b915061220c826121cb565b602082019050919050565b60006020820190508181036000830152612230816121f4565b9050919050565b7f50726f64756374206e616d652063616e6e6f7420626520656d70747900000000600082015250565b600061226d601c836117ee565b915061227882612237565b602082019050919050565b6000602082019050818103600083015261229c81612260565b9050919050565b7f4d616e7566616374757265722063616e6e6f7420626520656d70747900000000600082015250565b60006122d9601c836117ee565b91506122e4826122a3565b602082019050919050565b60006020820190508181036000830152612308816122cc565b9050919050565b7f5072696365206d7573742062652067726561746572207468616e203000000000600082015250565b6000612345601c836117ee565b91506123508261230f565b602082019050919050565b6000602082019050818103600083015261237481612338565b9050919050565b60006020601f8301049050919050565b600082821b905092915050565b6000600883026123c87fffffffffffffffffffffffffffffffffffffffffffffffffffffffffffffffff8261238b565b6123d2868361238b565b95508019841693508086168417925050509392505050565b6000819050919050565b600061240f61240a61240584611862565b6123ea565b611862565b9050919050565b6000819050919050565b612429836123f4565b61243d61243582612416565b848454612398565b825550505050565b600090565b612452612445565b61245d818484612420565b505050565b5b818110156124815761247660008261244a565b600181019050612463565b5050565b601f8211156124c657612497816120a5565b6124a08461237b565b810160208510156124af578190505b6124c36124bb8561237b565b830182612462565b50505b505050565b600082821c905092915050565b60006124e9600019846008026124cb565b1980831691505092915050565b600061250283836124d8565b9150826002028217905092915050565b61251b826117e3565b67ffffffffffffffff8111156125345761253361166f565b5b61253e8254611ef4565b612549828285612485565b600060209050601f83116001811461257c576000841561256a578287015190505b61257485826124f6565b8655506125dc565b601f19841661258a866120a5565b60005b828110156125b25784890151825560018201915060208501945060208101905061258d565b868310156125cf57848901516125cb601f8916826124d8565b8355505b6001600288020188555050505b505050505050565b600060608201905081810360008301526125fe8186611829565b905081810360208301526126128185611829565b9050612621604083018461186c565b94935050505056fea26469706673582212201391a258dab1545be9b47109c5817b2f17016c5e4790a343938d4ceba32021d564736f6c63430008130033",
  "immutableReferences": {},
  "source": "// SPDX-License-Identifier: MIT\r\npragma solidity ^0.8.19;\r\n\r\ncontract ProductRegistry {\r\n    struct Product {\r\n        string id;\r\n        string name;\r\n        string manufacturer;\r\n        string description;\r\n        uint256 price;\r\n        string category;\r\n        address registeredBy;\r\n        uint256 createdAt;\r\n        uint256 scanCount;\r\n        uint256 lastScanned;\r\n        bool isActive;\r\n    }\r\n    \r\n    mapping(string => Product) public products;\r\n    mapping(string => bool) public productExists;\r\n    string[] public productHashes;\r\n    \r\n    address public owner;\r\n    uint256 public totalProducts;\r\n    uint256 public totalScans;\r\n    \r\n    event ProductRegistered(\r\n        string indexed productHash,\r\n        string name,\r\n        string manufacturer,\r\n        address indexed registeredBy,\r\n        uint256 timestamp\r\n    );\r\n    \r\n    event ProductScanned(\r\n        string indexed productHash,\r\n        address indexed scannedBy,\r\n        uint256 scanCount,\r\n        uint256 timestamp\r\n    );\r\n    \r\n    modifier onlyOwner() {\r\n        require(msg.sender == owner, \"Only owner can call this function\");\r\n        _;\r\n    }\r\n    \r\n    modifier productMustExist(string memory productHash) {\r\n        require(productExists[productHash], \"Product does not exist\");\r\n        _;\r\n    }\r\n    \r\n    constructor() {\r\n        owner = msg.sender;\r\n        totalProducts = 0;\r\n        totalScans = 0;\r\n    }\r\n    \r\n    function registerProduct(\r\n        string memory productHash,\r\n        string memory id,\r\n        string memory name,\r\n        string memory manufacturer,\r\n        string memory description,\r\n        uint256 price,\r\n        string memory category\r\n    ) public {\r\n        require(!productExists[productHash], \"Product already exists\");\r\n        require(bytes(name).length > 0, \"Product name cannot be empty\");\r\n        require(bytes(manufacturer).length > 0, \"Manufacturer cannot be empty\");\r\n        require(price > 0, \"Price must be greater than 0\");\r\n        \r\n        products[productHash] = Product({\r\n            id: id,\r\n            name: name,\r\n            manufacturer: manufacturer,\r\n            description: description,\r\n            price: price,\r\n            category: category,\r\n            registeredBy: msg.sender,\r\n            createdAt: block.timestamp,\r\n            scanCount: 0,\r\n            lastScanned: 0,\r\n            isActive: true\r\n        });\r\n        \r\n        productExists[productHash] = true;\r\n        productHashes.push(productHash);\r\n        totalProducts++;\r\n        \r\n        emit ProductRegistered(productHash, name, manufacturer, msg.sender, block.timestamp);\r\n    }\r\n    \r\n    function scanProduct(string memory productHash) \r\n        public \r\n        productMustExist(productHash) \r\n        returns (uint256) \r\n    {\r\n        products[productHash].scanCount++;\r\n        products[productHash].lastScanned = block.timestamp;\r\n        totalScans++;\r\n        \r\n        emit ProductScanned(\r\n            productHash, \r\n            msg.sender, \r\n            products[productHash].scanCount, \r\n            block.timestamp\r\n        );\r\n        \r\n        return products[productHash].scanCount;\r\n    }\r\n    \r\n    function getProduct(string memory productHash) \r\n        public \r\n        view \r\n        productMustExist(productHash) \r\n        returns (Product memory) \r\n    {\r\n        return products[productHash];\r\n    }\r\n    \r\n    function getAllProductHashes() public view returns (string[] memory) {\r\n        return productHashes;\r\n    }\r\n    \r\n    function getProductsByManufacturer(address manufacturer) \r\n        public \r\n        view \r\n        returns (string[] memory) \r\n    {\r\n        uint256 count = 0;\r\n        \r\n        // Count products by manufacturer\r\n        for (uint256 i = 0; i < productHashes.length; i++) {\r\n            if (products[productHashes[i]].registeredBy == manufacturer) {\r\n                count++;\r\n            }\r\n        }\r\n        \r\n        // Create array of matching product hashes\r\n        string[] memory manufacturerProducts = new string[](count);\r\n        uint256 index = 0;\r\n        \r\n        for (uint256 i = 0; i < productHashes.length; i++) {\r\n            if (products[productHashes[i]].registeredBy == manufacturer) {\r\n                manufacturerProducts[index] = productHashes[i];\r\n                index++;\r\n            }\r\n        }\r\n        \r\n        return manufacturerProducts;\r\n    }\r\n    \r\n    function deactivateProduct(string memory productHash) \r\n        public \r\n        productMustExist(productHash) \r\n    {\r\n        require(\r\n            products[productHash].registeredBy == msg.sender || msg.sender == owner,\r\n            \"Only product owner or contract owner can deactivate\"\r\n        );\r\n        \r\n        products[productHash].isActive = false;\r\n    }\r\n    \r\n    function getTotalStats() public view returns (uint256, uint256) {\r\n        return (totalProducts, totalScans);\r\n    }\r\n}",
  "sourcePath": "E:\\Authentication System\\contracts\\ProductRegistry.sol",
  "compiler": {
    "name": "solc",
    "version": "0.8.19+commit.7dd6d404.Emscripten.clang"
  },
  "schemaVersion": "3.4.16",
  "updatedAt": "2025-08-11T19:48:57.012Z",
  "devdoc": {
    "kind": "dev",
    "methods": {},
    "version": 1
  },
  "userdoc": {
    "kind": "user",
    "methods": {},
    "version": 1
  }
}